{
  "_format": "hh-sol-artifact-1",
  "contractName": "NameRegistryV2",
  "sourceName": "contracts/modeDomainsV2.sol",
  "abi": [
    {
      "inputs": [
        {
          "internalType": "string",
          "name": "_name",
          "type": "string"
        },
        {
          "internalType": "string",
          "name": "_symbol",
          "type": "string"
        }
      ],
      "stateMutability": "nonpayable",
      "type": "constructor"
    },
    {
      "anonymous": false,
      "inputs": [
        {
          "indexed": true,
          "internalType": "address",
          "name": "owner",
          "type": "address"
        },
        {
          "indexed": true,
          "internalType": "address",
          "name": "approved",
          "type": "address"
        },
        {
          "indexed": true,
          "internalType": "uint256",
          "name": "tokenId",
          "type": "uint256"
        }
      ],
      "name": "Approval",
      "type": "event"
    },
    {
      "anonymous": false,
      "inputs": [
        {
          "indexed": true,
          "internalType": "address",
          "name": "owner",
          "type": "address"
        },
        {
          "indexed": true,
          "internalType": "address",
          "name": "operator",
          "type": "address"
        },
        {
          "indexed": false,
          "internalType": "bool",
          "name": "approved",
          "type": "bool"
        }
      ],
      "name": "ApprovalForAll",
      "type": "event"
    },
    {
      "anonymous": false,
      "inputs": [
        {
          "indexed": true,
          "internalType": "address",
          "name": "owner",
          "type": "address"
        },
        {
          "indexed": false,
          "internalType": "string",
          "name": "name",
          "type": "string"
        },
        {
          "indexed": false,
          "internalType": "uint256",
          "name": "expiryTimestamp",
          "type": "uint256"
        }
      ],
      "name": "NameRegistered",
      "type": "event"
    },
    {
      "anonymous": false,
      "inputs": [
        {
          "indexed": true,
          "internalType": "address",
          "name": "owner",
          "type": "address"
        },
        {
          "indexed": false,
          "internalType": "string",
          "name": "name",
          "type": "string"
        },
        {
          "indexed": false,
          "internalType": "uint256",
          "name": "newExpiryTimestamp",
          "type": "uint256"
        }
      ],
      "name": "NameRenewed",
      "type": "event"
    },
    {
      "anonymous": false,
      "inputs": [
        {
          "indexed": true,
          "internalType": "address",
          "name": "from",
          "type": "address"
        },
        {
          "indexed": true,
          "internalType": "address",
          "name": "to",
          "type": "address"
        },
        {
          "indexed": false,
          "internalType": "string",
          "name": "name",
          "type": "string"
        }
      ],
      "name": "NameTransferred",
      "type": "event"
    },
    {
      "anonymous": false,
      "inputs": [
        {
          "indexed": true,
          "internalType": "address",
          "name": "previousOwner",
          "type": "address"
        },
        {
          "indexed": true,
          "internalType": "address",
          "name": "newOwner",
          "type": "address"
        }
      ],
      "name": "OwnershipTransferred",
      "type": "event"
    },
    {
      "anonymous": false,
      "inputs": [
        {
          "indexed": false,
          "internalType": "uint256",
          "name": "newPrice",
          "type": "uint256"
        }
      ],
      "name": "RegistrationPriceChanged",
      "type": "event"
    },
    {
      "anonymous": false,
      "inputs": [
        {
          "indexed": true,
          "internalType": "address",
          "name": "from",
          "type": "address"
        },
        {
          "indexed": true,
          "internalType": "address",
          "name": "to",
          "type": "address"
        },
        {
          "indexed": true,
          "internalType": "uint256",
          "name": "tokenId",
          "type": "uint256"
        }
      ],
      "name": "Transfer",
      "type": "event"
    },
    {
      "inputs": [
        {
          "internalType": "address",
          "name": "to",
          "type": "address"
        },
        {
          "internalType": "uint256",
          "name": "tokenId",
          "type": "uint256"
        }
      ],
      "name": "approve",
      "outputs": [],
      "stateMutability": "nonpayable",
      "type": "function"
    },
    {
      "inputs": [
        {
          "internalType": "address",
          "name": "owner",
          "type": "address"
        }
      ],
      "name": "balanceOf",
      "outputs": [
        {
          "internalType": "uint256",
          "name": "",
          "type": "uint256"
        }
      ],
      "stateMutability": "view",
      "type": "function"
    },
    {
      "inputs": [],
      "name": "baseRegistrationPrice",
      "outputs": [
        {
          "internalType": "uint256",
          "name": "",
          "type": "uint256"
        }
      ],
      "stateMutability": "view",
      "type": "function"
    },
    {
      "inputs": [
        {
          "internalType": "string",
          "name": "name",
          "type": "string"
        },
        {
          "internalType": "uint256",
          "name": "numYears",
          "type": "uint256"
        }
      ],
      "name": "extendDuration",
      "outputs": [],
      "stateMutability": "payable",
      "type": "function"
    },
    {
      "inputs": [],
      "name": "getAllRegisteredAddresses",
      "outputs": [
        {
          "internalType": "address[]",
          "name": "",
          "type": "address[]"
        }
      ],
      "stateMutability": "view",
      "type": "function"
    },
    {
      "inputs": [
        {
          "internalType": "uint256",
          "name": "tokenId",
          "type": "uint256"
        }
      ],
      "name": "getApproved",
      "outputs": [
        {
          "internalType": "address",
          "name": "",
          "type": "address"
        }
      ],
      "stateMutability": "view",
      "type": "function"
    },
    {
      "inputs": [
        {
          "internalType": "address",
          "name": "addr",
          "type": "address"
        }
      ],
      "name": "getNameByAddress",
      "outputs": [
        {
          "internalType": "string",
          "name": "nameValue",
          "type": "string"
        },
        {
          "internalType": "uint256",
          "name": "creationTimestamp",
          "type": "uint256"
        },
        {
          "internalType": "uint256",
          "name": "registrationPrice",
          "type": "uint256"
        },
        {
          "internalType": "uint256",
          "name": "expiryTimestamp",
          "type": "uint256"
        },
        {
          "internalType": "string",
          "name": "tokenURIValue",
          "type": "string"
        }
      ],
      "stateMutability": "view",
      "type": "function"
    },
    {
      "inputs": [
        {
          "internalType": "string",
          "name": "name",
          "type": "string"
        }
      ],
      "name": "getNameDetails",
      "outputs": [
        {
          "internalType": "address",
          "name": "ownerAddress",
          "type": "address"
        },
        {
          "internalType": "uint256",
          "name": "creationTimestamp",
          "type": "uint256"
        },
        {
          "internalType": "uint256",
          "name": "registrationPrice",
          "type": "uint256"
        },
        {
          "internalType": "uint256",
          "name": "expiryTimestamp",
          "type": "uint256"
        },
        {
          "internalType": "string",
          "name": "tokenURIValue",
          "type": "string"
        }
      ],
      "stateMutability": "view",
      "type": "function"
    },
    {
      "inputs": [
        {
          "internalType": "string",
          "name": "name",
          "type": "string"
        }
      ],
      "name": "getRegistrationPrice",
      "outputs": [
        {
          "internalType": "uint256",
          "name": "",
          "type": "uint256"
        }
      ],
      "stateMutability": "view",
      "type": "function"
    },
    {
      "inputs": [
        {
          "internalType": "address",
          "name": "",
          "type": "address"
        }
      ],
      "name": "isAddressRegistered",
      "outputs": [
        {
          "internalType": "bool",
          "name": "",
          "type": "bool"
        }
      ],
      "stateMutability": "view",
      "type": "function"
    },
    {
      "inputs": [
        {
          "internalType": "address",
          "name": "owner",
          "type": "address"
        },
        {
          "internalType": "address",
          "name": "operator",
          "type": "address"
        }
      ],
      "name": "isApprovedForAll",
      "outputs": [
        {
          "internalType": "bool",
          "name": "",
          "type": "bool"
        }
      ],
      "stateMutability": "view",
      "type": "function"
    },
    {
      "inputs": [
        {
          "internalType": "string",
          "name": "name",
          "type": "string"
        },
        {
          "internalType": "string",
          "name": "metadataURI",
          "type": "string"
        },
        {
          "internalType": "address",
          "name": "_addr",
          "type": "address"
        },
        {
          "internalType": "uint256",
          "name": "_timeStamp",
          "type": "uint256"
        }
      ],
      "name": "migrate",
      "outputs": [],
      "stateMutability": "payable",
      "type": "function"
    },
    {
      "inputs": [],
      "name": "name",
      "outputs": [
        {
          "internalType": "string",
          "name": "",
          "type": "string"
        }
      ],
      "stateMutability": "view",
      "type": "function"
    },
    {
      "inputs": [
        {
          "internalType": "string",
          "name": "",
          "type": "string"
        }
      ],
      "name": "nameExists",
      "outputs": [
        {
          "internalType": "bool",
          "name": "",
          "type": "bool"
        }
      ],
      "stateMutability": "view",
      "type": "function"
    },
    {
      "inputs": [
        {
          "internalType": "string",
          "name": "",
          "type": "string"
        }
      ],
      "name": "nameExpiry",
      "outputs": [
        {
          "internalType": "uint256",
          "name": "",
          "type": "uint256"
        }
      ],
      "stateMutability": "view",
      "type": "function"
    },
    {
      "inputs": [
        {
          "internalType": "string",
          "name": "",
          "type": "string"
        }
      ],
      "name": "nameToTokenId",
      "outputs": [
        {
          "internalType": "uint256",
          "name": "",
          "type": "uint256"
        }
      ],
      "stateMutability": "view",
      "type": "function"
    },
    {
      "inputs": [],
      "name": "nextTokenId",
      "outputs": [
        {
          "internalType": "uint256",
          "name": "",
          "type": "uint256"
        }
      ],
      "stateMutability": "view",
      "type": "function"
    },
    {
      "inputs": [],
      "name": "owner",
      "outputs": [
        {
          "internalType": "address",
          "name": "",
          "type": "address"
        }
      ],
      "stateMutability": "view",
      "type": "function"
    },
    {
      "inputs": [
        {
          "internalType": "uint256",
          "name": "tokenId",
          "type": "uint256"
        }
      ],
      "name": "ownerOf",
      "outputs": [
        {
          "internalType": "address",
          "name": "",
          "type": "address"
        }
      ],
      "stateMutability": "view",
      "type": "function"
    },
    {
      "inputs": [
        {
          "internalType": "string",
          "name": "name",
          "type": "string"
        },
        {
          "internalType": "string",
          "name": "metadataURI",
          "type": "string"
        }
      ],
      "name": "registerName",
      "outputs": [],
      "stateMutability": "payable",
      "type": "function"
    },
    {
      "inputs": [],
      "name": "registrationDuration",
      "outputs": [
        {
          "internalType": "uint256",
          "name": "",
          "type": "uint256"
        }
      ],
      "stateMutability": "view",
      "type": "function"
    },
    {
      "inputs": [],
      "name": "renounceOwnership",
      "outputs": [],
      "stateMutability": "nonpayable",
      "type": "function"
    },
    {
      "inputs": [
        {
          "internalType": "string",
          "name": "nameWithTld",
          "type": "string"
        }
      ],
      "name": "resolveName",
      "outputs": [
        {
          "internalType": "address",
          "name": "",
          "type": "address"
        }
      ],
      "stateMutability": "view",
      "type": "function"
    },
    {
      "inputs": [
        {
          "internalType": "address",
          "name": "addr",
          "type": "address"
        }
      ],
      "name": "reverseResolver",
      "outputs": [
        {
          "internalType": "string",
          "name": "",
          "type": "string"
        }
      ],
      "stateMutability": "view",
      "type": "function"
    },
    {
      "inputs": [
        {
          "internalType": "address",
          "name": "from",
          "type": "address"
        },
        {
          "internalType": "address",
          "name": "to",
          "type": "address"
        },
        {
          "internalType": "uint256",
          "name": "tokenId",
          "type": "uint256"
        }
      ],
      "name": "safeTransferFrom",
      "outputs": [],
      "stateMutability": "nonpayable",
      "type": "function"
    },
    {
      "inputs": [
        {
          "internalType": "address",
          "name": "from",
          "type": "address"
        },
        {
          "internalType": "address",
          "name": "to",
          "type": "address"
        },
        {
          "internalType": "uint256",
          "name": "tokenId",
          "type": "uint256"
        },
        {
          "internalType": "bytes",
          "name": "data",
          "type": "bytes"
        }
      ],
      "name": "safeTransferFrom",
      "outputs": [],
      "stateMutability": "nonpayable",
      "type": "function"
    },
    {
      "inputs": [
        {
          "internalType": "address",
          "name": "operator",
          "type": "address"
        },
        {
          "internalType": "bool",
          "name": "approved",
          "type": "bool"
        }
      ],
      "name": "setApprovalForAll",
      "outputs": [],
      "stateMutability": "nonpayable",
      "type": "function"
    },
    {
      "inputs": [
        {
          "internalType": "uint256",
          "name": "price",
          "type": "uint256"
        }
      ],
      "name": "setBaseRegistrationPrice",
      "outputs": [],
      "stateMutability": "nonpayable",
      "type": "function"
    },
    {
      "inputs": [
        {
          "internalType": "uint256",
          "name": "duration",
          "type": "uint256"
        }
      ],
      "name": "setRegistrationDuration",
      "outputs": [],
      "stateMutability": "nonpayable",
      "type": "function"
    },
    {
      "inputs": [
        {
          "internalType": "uint256",
          "name": "tokenId",
          "type": "uint256"
        },
        {
          "internalType": "string",
          "name": "metadataURI",
          "type": "string"
        }
      ],
      "name": "setTokenURI",
      "outputs": [],
      "stateMutability": "nonpayable",
      "type": "function"
    },
    {
      "inputs": [
        {
          "internalType": "bytes4",
          "name": "interfaceId",
          "type": "bytes4"
        }
      ],
      "name": "supportsInterface",
      "outputs": [
        {
          "internalType": "bool",
          "name": "",
          "type": "bool"
        }
      ],
      "stateMutability": "view",
      "type": "function"
    },
    {
      "inputs": [],
      "name": "symbol",
      "outputs": [
        {
          "internalType": "string",
          "name": "",
          "type": "string"
        }
      ],
      "stateMutability": "view",
      "type": "function"
    },
    {
      "inputs": [
        {
          "internalType": "uint256",
          "name": "index",
          "type": "uint256"
        }
      ],
      "name": "tokenByIndex",
      "outputs": [
        {
          "internalType": "uint256",
          "name": "",
          "type": "uint256"
        }
      ],
      "stateMutability": "view",
      "type": "function"
    },
    {
      "inputs": [
        {
          "internalType": "string",
          "name": "name",
          "type": "string"
        }
      ],
      "name": "tokenIdOf",
      "outputs": [
        {
          "internalType": "uint256",
          "name": "",
          "type": "uint256"
        }
      ],
      "stateMutability": "view",
      "type": "function"
    },
    {
      "inputs": [
        {
          "internalType": "uint256",
          "name": "",
          "type": "uint256"
        }
      ],
      "name": "tokenIdToCreationTimestamp",
      "outputs": [
        {
          "internalType": "uint256",
          "name": "",
          "type": "uint256"
        }
      ],
      "stateMutability": "view",
      "type": "function"
    },
    {
      "inputs": [
        {
          "internalType": "uint256",
          "name": "",
          "type": "uint256"
        }
      ],
      "name": "tokenIdToName",
      "outputs": [
        {
          "internalType": "string",
          "name": "",
          "type": "string"
        }
      ],
      "stateMutability": "view",
      "type": "function"
    },
    {
      "inputs": [
        {
          "internalType": "address",
          "name": "owner",
          "type": "address"
        },
        {
          "internalType": "uint256",
          "name": "index",
          "type": "uint256"
        }
      ],
      "name": "tokenOfOwnerByIndex",
      "outputs": [
        {
          "internalType": "uint256",
          "name": "",
          "type": "uint256"
        }
      ],
      "stateMutability": "view",
      "type": "function"
    },
    {
      "inputs": [
        {
          "internalType": "uint256",
          "name": "tokenId",
          "type": "uint256"
        }
      ],
      "name": "tokenURI",
      "outputs": [
        {
          "internalType": "string",
          "name": "",
          "type": "string"
        }
      ],
      "stateMutability": "view",
      "type": "function"
    },
    {
      "inputs": [],
      "name": "totalSupply",
      "outputs": [
        {
          "internalType": "uint256",
          "name": "",
          "type": "uint256"
        }
      ],
      "stateMutability": "view",
      "type": "function"
    },
    {
      "inputs": [
        {
          "internalType": "address",
          "name": "from",
          "type": "address"
        },
        {
          "internalType": "address",
          "name": "to",
          "type": "address"
        },
        {
          "internalType": "uint256",
          "name": "tokenId",
          "type": "uint256"
        }
      ],
      "name": "transferFrom",
      "outputs": [],
      "stateMutability": "nonpayable",
      "type": "function"
    },
    {
      "inputs": [
        {
          "internalType": "address",
          "name": "to",
          "type": "address"
        },
        {
          "internalType": "uint256",
          "name": "tokenId",
          "type": "uint256"
        }
      ],
      "name": "transferName",
      "outputs": [],
      "stateMutability": "nonpayable",
      "type": "function"
    },
    {
      "inputs": [
        {
          "internalType": "address",
          "name": "newOwner",
          "type": "address"
        }
      ],
      "name": "transferOwnership",
      "outputs": [],
      "stateMutability": "nonpayable",
      "type": "function"
    },
    {
      "inputs": [],
      "name": "withdraw",
      "outputs": [],
      "stateMutability": "nonpayable",
      "type": "function"
    }
  ],
  "bytecode": "0x60806040526001600b5566b1a2bc2ec50000600c556301e13380600d556040518060400160405280600581526020017f2e6d6f6465000000000000000000000000000000000000000000000000000000815250600e908051906020019062000069929190620001c9565b503480156200007757600080fd5b5060405162005dac38038062005dac83398181016040528101906200009d919062000416565b81818160009080519060200190620000b7929190620001c9565b508060019080519060200190620000d0929190620001c9565b505050620000f3620000e7620000fb60201b60201c565b6200010360201b60201c565b505062000500565b600033905090565b6000600a60009054906101000a900473ffffffffffffffffffffffffffffffffffffffff16905081600a60006101000a81548173ffffffffffffffffffffffffffffffffffffffff021916908373ffffffffffffffffffffffffffffffffffffffff1602179055508173ffffffffffffffffffffffffffffffffffffffff168173ffffffffffffffffffffffffffffffffffffffff167f8be0079c531659141344cd1fd0a4f28419497f9722a3daafe3b4186f6b6457e060405160405180910390a35050565b828054620001d790620004ca565b90600052602060002090601f016020900481019282620001fb576000855562000247565b82601f106200021657805160ff191683800117855562000247565b8280016001018555821562000247579182015b828111156200024657825182559160200191906001019062000229565b5b5090506200025691906200025a565b5090565b5b80821115620002755760008160009055506001016200025b565b5090565b6000604051905090565b600080fd5b600080fd5b600080fd5b600080fd5b6000601f19601f8301169050919050565b7f4e487b7100000000000000000000000000000000000000000000000000000000600052604160045260246000fd5b620002e28262000297565b810181811067ffffffffffffffff82111715620003045762000303620002a8565b5b80604052505050565b60006200031962000279565b9050620003278282620002d7565b919050565b600067ffffffffffffffff8211156200034a5762000349620002a8565b5b620003558262000297565b9050602081019050919050565b60005b838110156200038257808201518184015260208101905062000365565b8381111562000392576000848401525b50505050565b6000620003af620003a9846200032c565b6200030d565b905082815260208101848484011115620003ce57620003cd62000292565b5b620003db84828562000362565b509392505050565b600082601f830112620003fb57620003fa6200028d565b5b81516200040d84826020860162000398565b91505092915050565b6000806040838503121562000430576200042f62000283565b5b600083015167ffffffffffffffff81111562000451576200045062000288565b5b6200045f85828601620003e3565b925050602083015167ffffffffffffffff81111562000483576200048262000288565b5b6200049185828601620003e3565b9150509250929050565b7f4e487b7100000000000000000000000000000000000000000000000000000000600052602260045260246000fd5b60006002820490506001821680620004e357607f821691505b60208210811415620004fa57620004f96200049b565b5b50919050565b61589c80620005106000396000f3fe60806040526004361061025c5760003560e01c8063715018a611610144578063c87b56dd116100b6578063dd0012541161007a578063dd0012541461097a578063de90d111146109b7578063e985e9c5146109e2578063ee6f10f114610a1f578063f2fde38b14610a5c578063ff21ce9c14610a855761025c565b8063c87b56dd1461086f578063cc637afe146108ac578063d3247cc6146108e9578063d479dbfa14610912578063da2bfdb11461093d5761025c565b8063a22cb46511610108578063a22cb4651461074a578063a2de996514610773578063a398d8191461078f578063b88d4fde146107cc578063bc19bce5146107f5578063c626347b146108325761025c565b8063715018a61461067157806375794a3c146106885780637c80bb4f146106b35780638da5cb5b146106f457806395d89b411461071f5761025c565b806329f87235116101dd57806342842e0e116101a157806342842e0e146105295780634f6ccce71461055257806357d7945c1461058f5780636352211e146105cc5780636450f31e1461060957806370a08231146106345761025c565b806329f872351461043b5780632c122cf6146104575780632f745c591461049857806338b6a3a1146104d55780633ccfd60b146105125761025c565b8063162094c411610224578063162094c41461035857806318160ddd14610381578063182d8cea146103ac57806323b872dd146103e957806327d40e07146104125761025c565b806301ffc9a71461026157806306fdde031461029e578063081812fc146102c9578063095ea7b314610306578063096e36cc1461032f575b600080fd5b34801561026d57600080fd5b5061028860048036038101906102839190613caa565b610aa1565b6040516102959190613cf2565b60405180910390f35b3480156102aa57600080fd5b506102b3610b1b565b6040516102c09190613da6565b60405180910390f35b3480156102d557600080fd5b506102f060048036038101906102eb9190613dfe565b610bad565b6040516102fd9190613e6c565b60405180910390f35b34801561031257600080fd5b5061032d60048036038101906103289190613eb3565b610bf3565b005b34801561033b57600080fd5b5061035660048036038101906103519190613dfe565b610d0b565b005b34801561036457600080fd5b5061037f600480360381019061037a9190614028565b610d1d565b005b34801561038d57600080fd5b50610396610d99565b6040516103a39190614093565b60405180910390f35b3480156103b857600080fd5b506103d360048036038101906103ce91906140ae565b610da6565b6040516103e09190614093565b60405180910390f35b3480156103f557600080fd5b50610410600480360381019061040b91906140f7565b610dd4565b005b34801561041e57600080fd5b5061043960048036038101906104349190613eb3565b610e34565b005b6104556004803603810190610450919061414a565b610fbf565b005b34801561046357600080fd5b5061047e600480360381019061047991906140ae565b6112ba565b60405161048f9594939291906141e9565b60405180910390f35b3480156104a457600080fd5b506104bf60048036038101906104ba9190613eb3565b611432565b6040516104cc9190614093565b60405180910390f35b3480156104e157600080fd5b506104fc60048036038101906104f79190614243565b6114d7565b6040516105099190613cf2565b60405180910390f35b34801561051e57600080fd5b506105276114f7565b005b34801561053557600080fd5b50610550600480360381019061054b91906140f7565b611555565b005b34801561055e57600080fd5b5061057960048036038101906105749190613dfe565b611575565b6040516105869190614093565b60405180910390f35b34801561059b57600080fd5b506105b660048036038101906105b19190614243565b6115e6565b6040516105c39190613da6565b60405180910390f35b3480156105d857600080fd5b506105f360048036038101906105ee9190613dfe565b61173e565b6040516106009190613e6c565b60405180910390f35b34801561061557600080fd5b5061061e6117f0565b60405161062b9190614093565b60405180910390f35b34801561064057600080fd5b5061065b60048036038101906106569190614243565b6117f6565b6040516106689190614093565b60405180910390f35b34801561067d57600080fd5b506106866118ae565b005b34801561069457600080fd5b5061069d6118c2565b6040516106aa9190614093565b60405180910390f35b3480156106bf57600080fd5b506106da60048036038101906106d59190614243565b6118c8565b6040516106eb959493929190614270565b60405180910390f35b34801561070057600080fd5b50610709611b08565b6040516107169190613e6c565b60405180910390f35b34801561072b57600080fd5b50610734611b32565b6040516107419190613da6565b60405180910390f35b34801561075657600080fd5b50610771600480360381019061076c91906142fd565b611bc4565b005b61078d6004803603810190610788919061433d565b611bda565b005b34801561079b57600080fd5b506107b660048036038101906107b191906140ae565b611e5d565b6040516107c39190614093565b60405180910390f35b3480156107d857600080fd5b506107f360048036038101906107ee919061443a565b611e85565b005b34801561080157600080fd5b5061081c600480360381019061081791906140ae565b611ee7565b6040516108299190613e6c565b60405180910390f35b34801561083e57600080fd5b50610859600480360381019061085491906140ae565b611ff7565b6040516108669190614093565b60405180910390f35b34801561087b57600080fd5b5061089660048036038101906108919190613dfe565b61210b565b6040516108a39190613da6565b60405180910390f35b3480156108b857600080fd5b506108d360048036038101906108ce91906140ae565b6121f8565b6040516108e09190613cf2565b60405180910390f35b3480156108f557600080fd5b50610910600480360381019061090b9190613dfe565b61222e565b005b34801561091e57600080fd5b50610927612277565b604051610934919061457b565b60405180910390f35b34801561094957600080fd5b50610964600480360381019061095f9190613dfe565b612371565b6040516109719190613da6565b60405180910390f35b34801561098657600080fd5b506109a1600480360381019061099c91906140ae565b612411565b6040516109ae9190614093565b60405180910390f35b3480156109c357600080fd5b506109cc61243f565b6040516109d99190614093565b60405180910390f35b3480156109ee57600080fd5b50610a096004803603810190610a04919061459d565b612445565b604051610a169190613cf2565b60405180910390f35b348015610a2b57600080fd5b50610a466004803603810190610a419190613dfe565b6124d9565b604051610a539190614093565b60405180910390f35b348015610a6857600080fd5b50610a836004803603810190610a7e9190614243565b6124f1565b005b610a9f6004803603810190610a9a91906145dd565b612575565b005b60007f780e9d63000000000000000000000000000000000000000000000000000000007bffffffffffffffffffffffffffffffffffffffffffffffffffffffff1916827bffffffffffffffffffffffffffffffffffffffffffffffffffffffff19161480610b145750610b13826128b6565b5b9050919050565b606060008054610b2a90614684565b80601f0160208091040260200160405190810160405280929190818152602001828054610b5690614684565b8015610ba35780601f10610b7857610100808354040283529160200191610ba3565b820191906000526020600020905b815481529060010190602001808311610b8657829003601f168201915b5050505050905090565b6000610bb882612998565b6004600083815260200190815260200160002060009054906101000a900473ffffffffffffffffffffffffffffffffffffffff169050919050565b6000610bfe8261173e565b90508073ffffffffffffffffffffffffffffffffffffffff168373ffffffffffffffffffffffffffffffffffffffff161415610c6f576040517f08c379a0000000000000000000000000000000000000000000000000000000008152600401610c6690614728565b60405180910390fd5b8073ffffffffffffffffffffffffffffffffffffffff16610c8e6129e3565b73ffffffffffffffffffffffffffffffffffffffff161480610cbd5750610cbc81610cb76129e3565b612445565b5b610cfc576040517f08c379a0000000000000000000000000000000000000000000000000000000008152600401610cf3906147ba565b60405180910390fd5b610d0683836129eb565b505050565b610d13612aa4565b80600d8190555050565b610d25612aa4565b610d2e82612b22565b610d6d576040517f08c379a0000000000000000000000000000000000000000000000000000000008152600401610d6490614826565b60405180910390fd5b80601360008481526020019081526020016000209080519060200190610d94929190613b9b565b505050565b6000600880549050905090565b6014818051602081018201805184825260208301602085012081835280955050505050506000915090505481565b610de5610ddf6129e3565b82612b8e565b610e24576040517f08c379a0000000000000000000000000000000000000000000000000000000008152600401610e1b906148b8565b60405180910390fd5b610e2f838383612c23565b505050565b3373ffffffffffffffffffffffffffffffffffffffff16610e548261173e565b73ffffffffffffffffffffffffffffffffffffffff1614610eaa576040517f08c379a0000000000000000000000000000000000000000000000000000000008152600401610ea190614924565b60405180910390fd5b6000601060008381526020019081526020016000208054610eca90614684565b80601f0160208091040260200160405190810160405280929190818152602001828054610ef690614684565b8015610f435780601f10610f1857610100808354040283529160200191610f43565b820191906000526020600020905b815481529060010190602001808311610f2657829003601f168201915b50505050509050610f55338484612c23565b8273ffffffffffffffffffffffffffffffffffffffff163373ffffffffffffffffffffffffffffffffffffffff167f61ce72876df632c9cea54f37e843a14873bc9a7abd2f79797a8a00e467081f3c83604051610fb29190613da6565b60405180910390a3505050565b610fc7612aa4565b60001515600f85604051610fdb9190614980565b908152602001604051809103902060009054906101000a900460ff16151514611039576040517f08c379a0000000000000000000000000000000000000000000000000000000008152600401611030906149e3565b60405180910390fd5b60001515601560008473ffffffffffffffffffffffffffffffffffffffff1673ffffffffffffffffffffffffffffffffffffffff16815260200190815260200160002060009054906101000a900460ff161515146110cc576040517f08c379a00000000000000000000000000000000000000000000000000000000081526004016110c390614a75565b60405180910390fd5b6110d882600b54612e8a565b600b546011856040516110eb9190614980565b9081526020016040518091039020819055506001600f8560405161110f9190614980565b908152602001604051809103902060006101000a81548160ff0219169083151502179055508360106000600b548152602001908152602001600020908051906020019061115d929190613b9b565b508060126000600b548152602001908152602001600020819055508260136000600b54815260200190815260200160002090805190602001906111a1929190613b9b565b50600d54816111b09190614ac4565b6014856040516111c09190614980565b9081526020016040518091039020819055506001601560008473ffffffffffffffffffffffffffffffffffffffff1673ffffffffffffffffffffffffffffffffffffffff16815260200190815260200160002060006101000a81548160ff0219169083151502179055506112406001600b5461306490919063ffffffff16565b600b819055508173ffffffffffffffffffffffffffffffffffffffff167fdcc2175a495289b48da3c0c903e6e8fd7bbf9400cc93d7d1b8be780fc5916c668560148760405161128f9190614980565b9081526020016040518091039020546040516112ac929190614b1a565b60405180910390a250505050565b600080600080606060006112cd87611e5d565b9050600f876040516112df9190614980565b908152602001604051809103902060009054906101000a900460ff1661133a576040517f08c379a000000000000000000000000000000000000000000000000000000000815260040161133190614b96565b60405180910390fd5b6113438161173e565b601260008381526020019081526020016000205461136089611ff7565b60148a6040516113709190614980565b9081526020016040518091039020546013600086815260200190815260200160002080805461139e90614684565b80601f01602080910402602001604051908101604052809291908181526020018280546113ca90614684565b80156114175780601f106113ec57610100808354040283529160200191611417565b820191906000526020600020905b8154815290600101906020018083116113fa57829003601f168201915b50505050509050955095509550955095505091939590929450565b600061143d836117f6565b821061147e576040517f08c379a000000000000000000000000000000000000000000000000000000000815260040161147590614c28565b60405180910390fd5b600660008473ffffffffffffffffffffffffffffffffffffffff1673ffffffffffffffffffffffffffffffffffffffff168152602001908152602001600020600083815260200190815260200160002054905092915050565b60156020528060005260406000206000915054906101000a900460ff1681565b6114ff612aa4565b600047905061150c611b08565b73ffffffffffffffffffffffffffffffffffffffff166108fc829081150290604051600060405180830381858888f19350505050158015611551573d6000803e3d6000fd5b5050565b61157083838360405180602001604052806000815250611e85565b505050565b600061157f610d99565b82106115c0576040517f08c379a00000000000000000000000000000000000000000000000000000000081526004016115b790614cba565b60405180910390fd5b600882815481106115d4576115d3614cda565b5b90600052602060002001549050919050565b60606000600190505b600b548110156117255761160281612b22565b801561164157508273ffffffffffffffffffffffffffffffffffffffff166116298261173e565b73ffffffffffffffffffffffffffffffffffffffff16145b1561171257600060106000838152602001908152602001600020805461166690614684565b80601f016020809104026020016040519081016040528092919081815260200182805461169290614684565b80156116df5780601f106116b4576101008083540402835291602001916116df565b820191906000526020600020905b8154815290600101906020018083116116c257829003601f168201915b5050505050905080600e6040516020016116fa929190614d9d565b60405160208183030381529060405292505050611739565b808061171d90614dc1565b9150506115ef565b506040518060200160405280600081525090505b919050565b6000806002600084815260200190815260200160002060009054906101000a900473ffffffffffffffffffffffffffffffffffffffff169050600073ffffffffffffffffffffffffffffffffffffffff168173ffffffffffffffffffffffffffffffffffffffff1614156117e7576040517f08c379a00000000000000000000000000000000000000000000000000000000081526004016117de90614e56565b60405180910390fd5b80915050919050565b600c5481565b60008073ffffffffffffffffffffffffffffffffffffffff168273ffffffffffffffffffffffffffffffffffffffff161415611867576040517f08c379a000000000000000000000000000000000000000000000000000000000815260040161185e90614ee8565b60405180910390fd5b600360008373ffffffffffffffffffffffffffffffffffffffff1673ffffffffffffffffffffffffffffffffffffffff168152602001908152602001600020549050919050565b6118b6612aa4565b6118c0600061307a565b565b600b5481565b60606000806000606060005b600b54811015611acb576118e781612b22565b801561192657508673ffffffffffffffffffffffffffffffffffffffff1661190e8261173e565b73ffffffffffffffffffffffffffffffffffffffff16145b15611ab857600060106000838152602001908152602001600020805461194b90614684565b80601f016020809104026020016040519081016040528092919081815260200182805461197790614684565b80156119c45780601f10611999576101008083540402835291602001916119c4565b820191906000526020600020905b8154815290600101906020018083116119a757829003601f168201915b505050505090508060126000848152602001908152602001600020546119e983611ff7565b6014846040516119f99190614980565b90815260200160405180910390205460136000878152602001908152602001600020808054611a2790614684565b80601f0160208091040260200160405190810160405280929190818152602001828054611a5390614684565b8015611aa05780601f10611a7557610100808354040283529160200191611aa0565b820191906000526020600020905b815481529060010190602001808311611a8357829003601f168201915b50505050509050965096509650965096505050611aff565b8080611ac390614dc1565b9150506118d4565b5060008060006040518060200160405280600081525092919060405180602001604052806000815250945094509450945094505b91939590929450565b6000600a60009054906101000a900473ffffffffffffffffffffffffffffffffffffffff16905090565b606060018054611b4190614684565b80601f0160208091040260200160405190810160405280929190818152602001828054611b6d90614684565b8015611bba5780601f10611b8f57610100808354040283529160200191611bba565b820191906000526020600020905b815481529060010190602001808311611b9d57829003601f168201915b5050505050905090565b611bd6611bcf6129e3565b8383613140565b5050565b600f82604051611bea9190614980565b908152602001604051809103902060009054906101000a900460ff16611c45576040517f08c379a0000000000000000000000000000000000000000000000000000000008152600401611c3c90614b96565b60405180910390fd5b3373ffffffffffffffffffffffffffffffffffffffff16611c83601184604051611c6f9190614980565b90815260200160405180910390205461173e565b73ffffffffffffffffffffffffffffffffffffffff1614611cd9576040517f08c379a0000000000000000000000000000000000000000000000000000000008152600401611cd090614f7a565b60405180910390fd5b60008111611d1c576040517f08c379a0000000000000000000000000000000000000000000000000000000008152600401611d139061500c565b60405180910390fd5b6000611d39611d2a84611ff7565b836132ad90919063ffffffff16565b9050803414611d7d576040517f08c379a0000000000000000000000000000000000000000000000000000000008152600401611d7490615078565b60405180910390fd5b6000611d94600d54846132ad90919063ffffffff16565b9050611dc781601486604051611daa9190614980565b90815260200160405180910390205461306490919063ffffffff16565b601485604051611dd79190614980565b9081526020016040518091039020819055503373ffffffffffffffffffffffffffffffffffffffff167fa41e0452047546d9b0f775ebc42b65c631a9c861670c6b2479651f4d4a92897785601487604051611e329190614980565b908152602001604051809103902054604051611e4f929190614b1a565b60405180910390a250505050565b6000601182604051611e6f9190614980565b9081526020016040518091039020549050919050565b611e96611e906129e3565b83612b8e565b611ed5576040517f08c379a0000000000000000000000000000000000000000000000000000000008152600401611ecc906148b8565b60405180910390fd5b611ee1848484846132c3565b50505050565b600042601483604051611efa9190614980565b90815260200160405180910390205411611f49576040517f08c379a0000000000000000000000000000000000000000000000000000000008152600401611f40906150e4565b60405180910390fd5b600e8054611f5690614684565b9050825111611f9a576040517f08c379a0000000000000000000000000000000000000000000000000000000008152600401611f9190615150565b60405180910390fd5b6000611fc2836000600e8054611faf90614684565b90508651611fbd9190615170565b61331f565b90506000611fcf82611e5d565b905060008114611feb57611fe28161173e565b92505050611ff2565b6000925050505b919050565b6000808251905060028111612041576040517f08c379a000000000000000000000000000000000000000000000000000000000815260040161203890615216565b60405180910390fd5b6000600c549050600382141561206c576120656002826132ad90919063ffffffff16565b90506120a0565b600382111561209f5761209c600261208e6003846132ad90919063ffffffff16565b61346b90919063ffffffff16565b90505b5b60005b82811015612100576120d18582815181106120c1576120c0614cda565b5b602001015160f81c60f81b613481565b156120ed576120ea60028361346b90919063ffffffff16565b91505b80806120f890614dc1565b9150506120a3565b508092505050919050565b606061211682612b22565b612155576040517f08c379a000000000000000000000000000000000000000000000000000000000815260040161214c90614826565b60405180910390fd5b60136000838152602001908152602001600020805461217390614684565b80601f016020809104026020016040519081016040528092919081815260200182805461219f90614684565b80156121ec5780601f106121c1576101008083540402835291602001916121ec565b820191906000526020600020905b8154815290600101906020018083116121cf57829003601f168201915b50505050509050919050565b600f818051602081018201805184825260208301602085012081835280955050505050506000915054906101000a900460ff1681565b612236612aa4565b80600c819055507f7e7c2c306b30146445227c233f02cb49d48e16d60345707ca28ec88bdc02856f8160405161226c9190614093565b60405180910390a150565b606060006001600b5461228a9190615170565b67ffffffffffffffff8111156122a3576122a2613efd565b5b6040519080825280602002602001820160405280156122d15781602001602082028036833780820191505090505b5090506000600190505b600b54811015612369576122ee81612b22565b15612356576122fc8161173e565b8260018361230a9190615170565b8151811061231b5761231a614cda565b5b602002602001019073ffffffffffffffffffffffffffffffffffffffff16908173ffffffffffffffffffffffffffffffffffffffff16815250505b808061236190614dc1565b9150506122db565b508091505090565b6010602052806000526040600020600091509050805461239090614684565b80601f01602080910402602001604051908101604052809291908181526020018280546123bc90614684565b80156124095780601f106123de57610100808354040283529160200191612409565b820191906000526020600020905b8154815290600101906020018083116123ec57829003601f168201915b505050505081565b6011818051602081018201805184825260208301602085012081835280955050505050506000915090505481565b600d5481565b6000600560008473ffffffffffffffffffffffffffffffffffffffff1673ffffffffffffffffffffffffffffffffffffffff16815260200190815260200160002060008373ffffffffffffffffffffffffffffffffffffffff1673ffffffffffffffffffffffffffffffffffffffff16815260200190815260200160002060009054906101000a900460ff16905092915050565b60126020528060005260406000206000915090505481565b6124f9612aa4565b600073ffffffffffffffffffffffffffffffffffffffff168173ffffffffffffffffffffffffffffffffffffffff161415612569576040517f08c379a0000000000000000000000000000000000000000000000000000000008152600401612560906152a8565b60405180910390fd5b6125728161307a565b50565b60001515600f836040516125899190614980565b908152602001604051809103902060009054906101000a900460ff161515146125e7576040517f08c379a00000000000000000000000000000000000000000000000000000000081526004016125de906149e3565b60405180910390fd5b60001515601560003373ffffffffffffffffffffffffffffffffffffffff1673ffffffffffffffffffffffffffffffffffffffff16815260200190815260200160002060009054906101000a900460ff1615151461267a576040517f08c379a000000000000000000000000000000000000000000000000000000000815260040161267190614a75565b60405180910390fd5b600061268583611ff7565b90508034146126c9576040517f08c379a00000000000000000000000000000000000000000000000000000000081526004016126c090615078565b60405180910390fd5b6126d533600b54612e8a565b600b546011846040516126e89190614980565b9081526020016040518091039020819055506001600f8460405161270c9190614980565b908152602001604051809103902060006101000a81548160ff0219169083151502179055508260106000600b548152602001908152602001600020908051906020019061275a929190613b9b565b504260126000600b548152602001908152602001600020819055508160136000600b548152602001908152602001600020908051906020019061279e929190613b9b565b50600d54426127ad9190614ac4565b6014846040516127bd9190614980565b9081526020016040518091039020819055506001601560003373ffffffffffffffffffffffffffffffffffffffff1673ffffffffffffffffffffffffffffffffffffffff16815260200190815260200160002060006101000a81548160ff02191690831515021790555061283d6001600b5461306490919063ffffffff16565b600b819055503373ffffffffffffffffffffffffffffffffffffffff167fdcc2175a495289b48da3c0c903e6e8fd7bbf9400cc93d7d1b8be780fc5916c668460148660405161288c9190614980565b9081526020016040518091039020546040516128a9929190614b1a565b60405180910390a2505050565b60007f80ac58cd000000000000000000000000000000000000000000000000000000007bffffffffffffffffffffffffffffffffffffffffffffffffffffffff1916827bffffffffffffffffffffffffffffffffffffffffffffffffffffffff1916148061298157507f5b5e139f000000000000000000000000000000000000000000000000000000007bffffffffffffffffffffffffffffffffffffffffffffffffffffffff1916827bffffffffffffffffffffffffffffffffffffffffffffffffffffffff1916145b80612991575061299082613562565b5b9050919050565b6129a181612b22565b6129e0576040517f08c379a00000000000000000000000000000000000000000000000000000000081526004016129d790614e56565b60405180910390fd5b50565b600033905090565b816004600083815260200190815260200160002060006101000a81548173ffffffffffffffffffffffffffffffffffffffff021916908373ffffffffffffffffffffffffffffffffffffffff160217905550808273ffffffffffffffffffffffffffffffffffffffff16612a5e8361173e565b73ffffffffffffffffffffffffffffffffffffffff167f8c5be1e5ebec7d5bd14f71427d1e84f3dd0314c0f7b2291e5b200ac8c7c3b92560405160405180910390a45050565b612aac6129e3565b73ffffffffffffffffffffffffffffffffffffffff16612aca611b08565b73ffffffffffffffffffffffffffffffffffffffff1614612b20576040517f08c379a0000000000000000000000000000000000000000000000000000000008152600401612b1790615314565b60405180910390fd5b565b60008073ffffffffffffffffffffffffffffffffffffffff166002600084815260200190815260200160002060009054906101000a900473ffffffffffffffffffffffffffffffffffffffff1673ffffffffffffffffffffffffffffffffffffffff1614159050919050565b600080612b9a8361173e565b90508073ffffffffffffffffffffffffffffffffffffffff168473ffffffffffffffffffffffffffffffffffffffff161480612bdc5750612bdb8185612445565b5b80612c1a57508373ffffffffffffffffffffffffffffffffffffffff16612c0284610bad565b73ffffffffffffffffffffffffffffffffffffffff16145b91505092915050565b8273ffffffffffffffffffffffffffffffffffffffff16612c438261173e565b73ffffffffffffffffffffffffffffffffffffffff1614612c99576040517f08c379a0000000000000000000000000000000000000000000000000000000008152600401612c90906153a6565b60405180910390fd5b600073ffffffffffffffffffffffffffffffffffffffff168273ffffffffffffffffffffffffffffffffffffffff161415612d09576040517f08c379a0000000000000000000000000000000000000000000000000000000008152600401612d0090615438565b60405180910390fd5b612d148383836135cc565b612d1f6000826129eb565b6001600360008573ffffffffffffffffffffffffffffffffffffffff1673ffffffffffffffffffffffffffffffffffffffff1681526020019081526020016000206000828254612d6f9190615170565b925050819055506001600360008473ffffffffffffffffffffffffffffffffffffffff1673ffffffffffffffffffffffffffffffffffffffff1681526020019081526020016000206000828254612dc69190614ac4565b92505081905550816002600083815260200190815260200160002060006101000a81548173ffffffffffffffffffffffffffffffffffffffff021916908373ffffffffffffffffffffffffffffffffffffffff160217905550808273ffffffffffffffffffffffffffffffffffffffff168473ffffffffffffffffffffffffffffffffffffffff167fddf252ad1be2c89b69c2b068fc378daa952ba7f163c4a11628f55a4df523b3ef60405160405180910390a4612e858383836136e0565b505050565b600073ffffffffffffffffffffffffffffffffffffffff168273ffffffffffffffffffffffffffffffffffffffff161415612efa576040517f08c379a0000000000000000000000000000000000000000000000000000000008152600401612ef1906154a4565b60405180910390fd5b612f0381612b22565b15612f43576040517f08c379a0000000000000000000000000000000000000000000000000000000008152600401612f3a90615510565b60405180910390fd5b612f4f600083836135cc565b6001600360008473ffffffffffffffffffffffffffffffffffffffff1673ffffffffffffffffffffffffffffffffffffffff1681526020019081526020016000206000828254612f9f9190614ac4565b92505081905550816002600083815260200190815260200160002060006101000a81548173ffffffffffffffffffffffffffffffffffffffff021916908373ffffffffffffffffffffffffffffffffffffffff160217905550808273ffffffffffffffffffffffffffffffffffffffff16600073ffffffffffffffffffffffffffffffffffffffff167fddf252ad1be2c89b69c2b068fc378daa952ba7f163c4a11628f55a4df523b3ef60405160405180910390a4613060600083836136e0565b5050565b600081836130729190614ac4565b905092915050565b6000600a60009054906101000a900473ffffffffffffffffffffffffffffffffffffffff16905081600a60006101000a81548173ffffffffffffffffffffffffffffffffffffffff021916908373ffffffffffffffffffffffffffffffffffffffff1602179055508173ffffffffffffffffffffffffffffffffffffffff168173ffffffffffffffffffffffffffffffffffffffff167f8be0079c531659141344cd1fd0a4f28419497f9722a3daafe3b4186f6b6457e060405160405180910390a35050565b8173ffffffffffffffffffffffffffffffffffffffff168373ffffffffffffffffffffffffffffffffffffffff1614156131af576040517f08c379a00000000000000000000000000000000000000000000000000000000081526004016131a69061557c565b60405180910390fd5b80600560008573ffffffffffffffffffffffffffffffffffffffff1673ffffffffffffffffffffffffffffffffffffffff16815260200190815260200160002060008473ffffffffffffffffffffffffffffffffffffffff1673ffffffffffffffffffffffffffffffffffffffff16815260200190815260200160002060006101000a81548160ff0219169083151502179055508173ffffffffffffffffffffffffffffffffffffffff168373ffffffffffffffffffffffffffffffffffffffff167f17307eab39ab6107e8899845ad3d59bd9653f200f220920489ca2b5937696c31836040516132a09190613cf2565b60405180910390a3505050565b600081836132bb919061559c565b905092915050565b6132ce848484612c23565b6132da848484846136e5565b613319576040517f08c379a000000000000000000000000000000000000000000000000000000000815260040161331090615668565b60405180910390fd5b50505050565b60606000849050828411158015613337575080518311155b613376576040517f08c379a000000000000000000000000000000000000000000000000000000000815260040161336d906156d4565b60405180910390fd5b600084846133849190615170565b67ffffffffffffffff81111561339d5761339c613efd565b5b6040519080825280601f01601f1916602001820160405280156133cf5781602001600182028036833780820191505090505b50905060008590505b8481101561345e578281815181106133f3576133f2614cda565b5b602001015160f81c60f81b82878361340b9190615170565b8151811061341c5761341b614cda565b5b60200101907effffffffffffffffffffffffffffffffffffffffffffffffffffffffffffff1916908160001a905350808061345690614dc1565b9150506133d8565b5080925050509392505050565b600081836134799190615723565b905092915050565b60007f30000000000000000000000000000000000000000000000000000000000000007effffffffffffffffffffffffffffffffffffffffffffffffffffffffffffff1916827effffffffffffffffffffffffffffffffffffffffffffffffffffffffffffff19161015801561355b57507f39000000000000000000000000000000000000000000000000000000000000007effffffffffffffffffffffffffffffffffffffffffffffffffffffffffffff1916827effffffffffffffffffffffffffffffffffffffffffffffffffffffffffffff191611155b9050919050565b60007f01ffc9a7000000000000000000000000000000000000000000000000000000007bffffffffffffffffffffffffffffffffffffffffffffffffffffffff1916827bffffffffffffffffffffffffffffffffffffffffffffffffffffffff1916149050919050565b6135d783838361386d565b600073ffffffffffffffffffffffffffffffffffffffff168373ffffffffffffffffffffffffffffffffffffffff16141561361a5761361581613872565b613659565b8173ffffffffffffffffffffffffffffffffffffffff168373ffffffffffffffffffffffffffffffffffffffff16146136585761365783826138bb565b5b5b600073ffffffffffffffffffffffffffffffffffffffff168273ffffffffffffffffffffffffffffffffffffffff16141561369c5761369781613a28565b6136db565b8273ffffffffffffffffffffffffffffffffffffffff168273ffffffffffffffffffffffffffffffffffffffff16146136da576136d98282613af9565b5b5b505050565b505050565b60006137068473ffffffffffffffffffffffffffffffffffffffff16613b78565b15613860578373ffffffffffffffffffffffffffffffffffffffff1663150b7a0261372f6129e3565b8786866040518563ffffffff1660e01b815260040161375194939291906157a9565b6020604051808303816000875af192505050801561378d57506040513d601f19601f8201168201806040525081019061378a919061580a565b60015b613810573d80600081146137bd576040519150601f19603f3d011682016040523d82523d6000602084013e6137c2565b606091505b50600081511415613808576040517f08c379a00000000000000000000000000000000000000000000000000000000081526004016137ff90615668565b60405180910390fd5b805181602001fd5b63150b7a0260e01b7bffffffffffffffffffffffffffffffffffffffffffffffffffffffff1916817bffffffffffffffffffffffffffffffffffffffffffffffffffffffff191614915050613865565b600190505b949350505050565b505050565b6008805490506009600083815260200190815260200160002081905550600881908060018154018082558091505060019003906000526020600020016000909190919091505550565b600060016138c8846117f6565b6138d29190615170565b90506000600760008481526020019081526020016000205490508181146139b7576000600660008673ffffffffffffffffffffffffffffffffffffffff1673ffffffffffffffffffffffffffffffffffffffff168152602001908152602001600020600084815260200190815260200160002054905080600660008773ffffffffffffffffffffffffffffffffffffffff1673ffffffffffffffffffffffffffffffffffffffff168152602001908152602001600020600084815260200190815260200160002081905550816007600083815260200190815260200160002081905550505b6007600084815260200190815260200160002060009055600660008573ffffffffffffffffffffffffffffffffffffffff1673ffffffffffffffffffffffffffffffffffffffff16815260200190815260200160002060008381526020019081526020016000206000905550505050565b60006001600880549050613a3c9190615170565b9050600060096000848152602001908152602001600020549050600060088381548110613a6c57613a6b614cda565b5b906000526020600020015490508060088381548110613a8e57613a8d614cda565b5b906000526020600020018190555081600960008381526020019081526020016000208190555060096000858152602001908152602001600020600090556008805480613add57613adc615837565b5b6001900381819060005260206000200160009055905550505050565b6000613b04836117f6565b905081600660008573ffffffffffffffffffffffffffffffffffffffff1673ffffffffffffffffffffffffffffffffffffffff168152602001908152602001600020600083815260200190815260200160002081905550806007600084815260200190815260200160002081905550505050565b6000808273ffffffffffffffffffffffffffffffffffffffff163b119050919050565b828054613ba790614684565b90600052602060002090601f016020900481019282613bc95760008555613c10565b82601f10613be257805160ff1916838001178555613c10565b82800160010185558215613c10579182015b82811115613c0f578251825591602001919060010190613bf4565b5b509050613c1d9190613c21565b5090565b5b80821115613c3a576000816000905550600101613c22565b5090565b6000604051905090565b600080fd5b600080fd5b60007fffffffff0000000000000000000000000000000000000000000000000000000082169050919050565b613c8781613c52565b8114613c9257600080fd5b50565b600081359050613ca481613c7e565b92915050565b600060208284031215613cc057613cbf613c48565b5b6000613cce84828501613c95565b91505092915050565b60008115159050919050565b613cec81613cd7565b82525050565b6000602082019050613d076000830184613ce3565b92915050565b600081519050919050565b600082825260208201905092915050565b60005b83811015613d47578082015181840152602081019050613d2c565b83811115613d56576000848401525b50505050565b6000601f19601f8301169050919050565b6000613d7882613d0d565b613d828185613d18565b9350613d92818560208601613d29565b613d9b81613d5c565b840191505092915050565b60006020820190508181036000830152613dc08184613d6d565b905092915050565b6000819050919050565b613ddb81613dc8565b8114613de657600080fd5b50565b600081359050613df881613dd2565b92915050565b600060208284031215613e1457613e13613c48565b5b6000613e2284828501613de9565b91505092915050565b600073ffffffffffffffffffffffffffffffffffffffff82169050919050565b6000613e5682613e2b565b9050919050565b613e6681613e4b565b82525050565b6000602082019050613e816000830184613e5d565b92915050565b613e9081613e4b565b8114613e9b57600080fd5b50565b600081359050613ead81613e87565b92915050565b60008060408385031215613eca57613ec9613c48565b5b6000613ed885828601613e9e565b9250506020613ee985828601613de9565b9150509250929050565b600080fd5b600080fd5b7f4e487b7100000000000000000000000000000000000000000000000000000000600052604160045260246000fd5b613f3582613d5c565b810181811067ffffffffffffffff82111715613f5457613f53613efd565b5b80604052505050565b6000613f67613c3e565b9050613f738282613f2c565b919050565b600067ffffffffffffffff821115613f9357613f92613efd565b5b613f9c82613d5c565b9050602081019050919050565b82818337600083830152505050565b6000613fcb613fc684613f78565b613f5d565b905082815260208101848484011115613fe757613fe6613ef8565b5b613ff2848285613fa9565b509392505050565b600082601f83011261400f5761400e613ef3565b5b813561401f848260208601613fb8565b91505092915050565b6000806040838503121561403f5761403e613c48565b5b600061404d85828601613de9565b925050602083013567ffffffffffffffff81111561406e5761406d613c4d565b5b61407a85828601613ffa565b9150509250929050565b61408d81613dc8565b82525050565b60006020820190506140a86000830184614084565b92915050565b6000602082840312156140c4576140c3613c48565b5b600082013567ffffffffffffffff8111156140e2576140e1613c4d565b5b6140ee84828501613ffa565b91505092915050565b6000806000606084860312156141105761410f613c48565b5b600061411e86828701613e9e565b935050602061412f86828701613e9e565b925050604061414086828701613de9565b9150509250925092565b6000806000806080858703121561416457614163613c48565b5b600085013567ffffffffffffffff81111561418257614181613c4d565b5b61418e87828801613ffa565b945050602085013567ffffffffffffffff8111156141af576141ae613c4d565b5b6141bb87828801613ffa565b93505060406141cc87828801613e9e565b92505060606141dd87828801613de9565b91505092959194509250565b600060a0820190506141fe6000830188613e5d565b61420b6020830187614084565b6142186040830186614084565b6142256060830185614084565b81810360808301526142378184613d6d565b90509695505050505050565b60006020828403121561425957614258613c48565b5b600061426784828501613e9e565b91505092915050565b600060a082019050818103600083015261428a8188613d6d565b90506142996020830187614084565b6142a66040830186614084565b6142b36060830185614084565b81810360808301526142c58184613d6d565b90509695505050505050565b6142da81613cd7565b81146142e557600080fd5b50565b6000813590506142f7816142d1565b92915050565b6000806040838503121561431457614313613c48565b5b600061432285828601613e9e565b9250506020614333858286016142e8565b9150509250929050565b6000806040838503121561435457614353613c48565b5b600083013567ffffffffffffffff81111561437257614371613c4d565b5b61437e85828601613ffa565b925050602061438f85828601613de9565b9150509250929050565b600067ffffffffffffffff8211156143b4576143b3613efd565b5b6143bd82613d5c565b9050602081019050919050565b60006143dd6143d884614399565b613f5d565b9050828152602081018484840111156143f9576143f8613ef8565b5b614404848285613fa9565b509392505050565b600082601f83011261442157614420613ef3565b5b81356144318482602086016143ca565b91505092915050565b6000806000806080858703121561445457614453613c48565b5b600061446287828801613e9e565b945050602061447387828801613e9e565b935050604061448487828801613de9565b925050606085013567ffffffffffffffff8111156144a5576144a4613c4d565b5b6144b18782880161440c565b91505092959194509250565b600081519050919050565b600082825260208201905092915050565b6000819050602082019050919050565b6144f281613e4b565b82525050565b600061450483836144e9565b60208301905092915050565b6000602082019050919050565b6000614528826144bd565b61453281856144c8565b935061453d836144d9565b8060005b8381101561456e57815161455588826144f8565b975061456083614510565b925050600181019050614541565b5085935050505092915050565b60006020820190508181036000830152614595818461451d565b905092915050565b600080604083850312156145b4576145b3613c48565b5b60006145c285828601613e9e565b92505060206145d385828601613e9e565b9150509250929050565b600080604083850312156145f4576145f3613c48565b5b600083013567ffffffffffffffff81111561461257614611613c4d565b5b61461e85828601613ffa565b925050602083013567ffffffffffffffff81111561463f5761463e613c4d565b5b61464b85828601613ffa565b9150509250929050565b7f4e487b7100000000000000000000000000000000000000000000000000000000600052602260045260246000fd5b6000600282049050600182168061469c57607f821691505b602082108114156146b0576146af614655565b5b50919050565b7f4552433732313a20617070726f76616c20746f2063757272656e74206f776e6560008201527f7200000000000000000000000000000000000000000000000000000000000000602082015250565b6000614712602183613d18565b915061471d826146b6565b604082019050919050565b6000602082019050818103600083015261474181614705565b9050919050565b7f4552433732313a20617070726f76652063616c6c6572206973206e6f7420746f60008201527f6b656e206f776e6572206e6f7220617070726f76656420666f7220616c6c0000602082015250565b60006147a4603e83613d18565b91506147af82614748565b604082019050919050565b600060208201905081810360008301526147d381614797565b9050919050565b7f546f6b656e20646f6573206e6f74206578697374000000000000000000000000600082015250565b6000614810601483613d18565b915061481b826147da565b602082019050919050565b6000602082019050818103600083015261483f81614803565b9050919050565b7f4552433732313a2063616c6c6572206973206e6f7420746f6b656e206f776e6560008201527f72206e6f7220617070726f766564000000000000000000000000000000000000602082015250565b60006148a2602e83613d18565b91506148ad82614846565b604082019050919050565b600060208201905081810360008301526148d181614895565b9050919050565b7f4f6e6c7920746865206f776e65722063616e207472616e736665720000000000600082015250565b600061490e601b83613d18565b9150614919826148d8565b602082019050919050565b6000602082019050818103600083015261493d81614901565b9050919050565b600081905092915050565b600061495a82613d0d565b6149648185614944565b9350614974818560208601613d29565b80840191505092915050565b600061498c828461494f565b915081905092915050565b7f4e616d6520697320616c72656164792072656769737465726564000000000000600082015250565b60006149cd601a83613d18565b91506149d882614997565b602082019050919050565b600060208201905081810360008301526149fc816149c0565b9050919050565b7f4164647265737320697320616c7265616479207265676973746572656420776960008201527f74682061206e616d650000000000000000000000000000000000000000000000602082015250565b6000614a5f602983613d18565b9150614a6a82614a03565b604082019050919050565b60006020820190508181036000830152614a8e81614a52565b9050919050565b7f4e487b7100000000000000000000000000000000000000000000000000000000600052601160045260246000fd5b6000614acf82613dc8565b9150614ada83613dc8565b9250827fffffffffffffffffffffffffffffffffffffffffffffffffffffffffffffffff03821115614b0f57614b0e614a95565b5b828201905092915050565b60006040820190508181036000830152614b348185613d6d565b9050614b436020830184614084565b9392505050565b7f4e616d65206973206e6f74207265676973746572656400000000000000000000600082015250565b6000614b80601683613d18565b9150614b8b82614b4a565b602082019050919050565b60006020820190508181036000830152614baf81614b73565b9050919050565b7f455243373231456e756d657261626c653a206f776e657220696e646578206f7560008201527f74206f6620626f756e6473000000000000000000000000000000000000000000602082015250565b6000614c12602b83613d18565b9150614c1d82614bb6565b604082019050919050565b60006020820190508181036000830152614c4181614c05565b9050919050565b7f455243373231456e756d657261626c653a20676c6f62616c20696e646578206f60008201527f7574206f6620626f756e64730000000000000000000000000000000000000000602082015250565b6000614ca4602c83613d18565b9150614caf82614c48565b604082019050919050565b60006020820190508181036000830152614cd381614c97565b9050919050565b7f4e487b7100000000000000000000000000000000000000000000000000000000600052603260045260246000fd5b60008190508160005260206000209050919050565b60008154614d2b81614684565b614d358186614944565b94506001821660008114614d505760018114614d6157614d94565b60ff19831686528186019350614d94565b614d6a85614d09565b60005b83811015614d8c57815481890152600182019150602081019050614d6d565b838801955050505b50505092915050565b6000614da9828561494f565b9150614db58284614d1e565b91508190509392505050565b6000614dcc82613dc8565b91507fffffffffffffffffffffffffffffffffffffffffffffffffffffffffffffffff821415614dff57614dfe614a95565b5b600182019050919050565b7f4552433732313a20696e76616c696420746f6b656e2049440000000000000000600082015250565b6000614e40601883613d18565b9150614e4b82614e0a565b602082019050919050565b60006020820190508181036000830152614e6f81614e33565b9050919050565b7f4552433732313a2061646472657373207a65726f206973206e6f74206120766160008201527f6c6964206f776e65720000000000000000000000000000000000000000000000602082015250565b6000614ed2602983613d18565b9150614edd82614e76565b604082019050919050565b60006020820190508181036000830152614f0181614ec5565b9050919050565b7f4f6e6c7920746865206f776e65722063616e20657874656e642064757261746960008201527f6f6e000000000000000000000000000000000000000000000000000000000000602082015250565b6000614f64602283613d18565b9150614f6f82614f08565b604082019050919050565b60006020820190508181036000830152614f9381614f57565b9050919050565b7f457874656e73696f6e206475726174696f6e206d75737420626520677265617460008201527f6572207468616e20300000000000000000000000000000000000000000000000602082015250565b6000614ff6602983613d18565b915061500182614f9a565b604082019050919050565b6000602082019050818103600083015261502581614fe9565b9050919050565b7f496e73756666696369656e742066756e64732073656e74000000000000000000600082015250565b6000615062601783613d18565b915061506d8261502c565b602082019050919050565b6000602082019050818103600083015261509181615055565b9050919050565b7f4d4e532065787069726564206f72206e6f7420666f756e640000000000000000600082015250565b60006150ce601883613d18565b91506150d982615098565b602082019050919050565b600060208201905081810360008301526150fd816150c1565b9050919050565b7f496e76616c6964206e616d6520666f726d617400000000000000000000000000600082015250565b600061513a601383613d18565b915061514582615104565b602082019050919050565b600060208201905081810360008301526151698161512d565b9050919050565b600061517b82613dc8565b915061518683613dc8565b92508282101561519957615198614a95565b5b828203905092915050565b7f4e616d65206d7573742068617665206d6f7265207468616e203220636861726160008201527f6374657273000000000000000000000000000000000000000000000000000000602082015250565b6000615200602583613d18565b915061520b826151a4565b604082019050919050565b6000602082019050818103600083015261522f816151f3565b9050919050565b7f4f776e61626c653a206e6577206f776e657220697320746865207a65726f206160008201527f6464726573730000000000000000000000000000000000000000000000000000602082015250565b6000615292602683613d18565b915061529d82615236565b604082019050919050565b600060208201905081810360008301526152c181615285565b9050919050565b7f4f776e61626c653a2063616c6c6572206973206e6f7420746865206f776e6572600082015250565b60006152fe602083613d18565b9150615309826152c8565b602082019050919050565b6000602082019050818103600083015261532d816152f1565b9050919050565b7f4552433732313a207472616e736665722066726f6d20696e636f72726563742060008201527f6f776e6572000000000000000000000000000000000000000000000000000000602082015250565b6000615390602583613d18565b915061539b82615334565b604082019050919050565b600060208201905081810360008301526153bf81615383565b9050919050565b7f4552433732313a207472616e7366657220746f20746865207a65726f2061646460008201527f7265737300000000000000000000000000000000000000000000000000000000602082015250565b6000615422602483613d18565b915061542d826153c6565b604082019050919050565b6000602082019050818103600083015261545181615415565b9050919050565b7f4552433732313a206d696e7420746f20746865207a65726f2061646472657373600082015250565b600061548e602083613d18565b915061549982615458565b602082019050919050565b600060208201905081810360008301526154bd81615481565b9050919050565b7f4552433732313a20746f6b656e20616c7265616479206d696e74656400000000600082015250565b60006154fa601c83613d18565b9150615505826154c4565b602082019050919050565b60006020820190508181036000830152615529816154ed565b9050919050565b7f4552433732313a20617070726f766520746f2063616c6c657200000000000000600082015250565b6000615566601983613d18565b915061557182615530565b602082019050919050565b6000602082019050818103600083015261559581615559565b9050919050565b60006155a782613dc8565b91506155b283613dc8565b9250817fffffffffffffffffffffffffffffffffffffffffffffffffffffffffffffffff04831182151516156155eb576155ea614a95565b5b828202905092915050565b7f4552433732313a207472616e7366657220746f206e6f6e20455243373231526560008201527f63656976657220696d706c656d656e7465720000000000000000000000000000602082015250565b6000615652603283613d18565b915061565d826155f6565b604082019050919050565b6000602082019050818103600083015261568181615645565b9050919050565b7f496e76616c696420737562737472696e672072616e6765000000000000000000600082015250565b60006156be601783613d18565b91506156c982615688565b602082019050919050565b600060208201905081810360008301526156ed816156b1565b9050919050565b7f4e487b7100000000000000000000000000000000000000000000000000000000600052601260045260246000fd5b600061572e82613dc8565b915061573983613dc8565b925082615749576157486156f4565b5b828204905092915050565b600081519050919050565b600082825260208201905092915050565b600061577b82615754565b615785818561575f565b9350615795818560208601613d29565b61579e81613d5c565b840191505092915050565b60006080820190506157be6000830187613e5d565b6157cb6020830186613e5d565b6157d86040830185614084565b81810360608301526157ea8184615770565b905095945050505050565b60008151905061580481613c7e565b92915050565b6000602082840312156158205761581f613c48565b5b600061582e848285016157f5565b91505092915050565b7f4e487b7100000000000000000000000000000000000000000000000000000000600052603160045260246000fdfea2646970667358221220a1f21c66dbe10597b9922b337d07ac8fff96dc0ea7ed8ce2677d6cd3b84fa7a764736f6c634300080a0033",
  "linkReferences": {},
  "deployedLinkReferences": {}
}